:100000000C945A000C9464000C9464000C946400EA
:100010000C9464000C9464000C9464000C946400D0
:100020000C9464000C9464000C9464000C946400C0
:100030000C9464000C9464000C9464000C946400B0
:100040000C9464000C9464000C9464000C946400A0
:100050000C9464000C9464000C9464000C94640090
:100060000C9464000C9464000C9464000C94640080
:100070000C9464000C9464000C9464000C94640070
:100080000C9464000C9464000C9464000C94640060
:100090000C9464000C9464000C9464000C94640050
:1000A0000C9464000C9464000C9464000C94640040
:1000B0000C94640011241FBECFEFD8E0DEBFCDBF8B
:1000C0000E9466000C948D000C9400008FEF84B9A0
:1000D00017B885B92B9A2FE78FE492E12150804021
:1000E0009040E1F700C000002B982FEF84E39CE0E4
:1000F000215080409040E1F700C000003399EACFE2
:100100002B9A2A982FE786E191E421508040904075
:0E011000E1F700C000002A9ADDCFF894FFCF7F
:00000001FF
