S00C0000444133422E737265631E
S11300000C945A000C9477000C9477000C947700AD
S11300100C9477000C9477000C9477000C94770080
S11300200C9477000C9477000C9477000C94770070
S11300300C9477000C9477000C9477000C94770060
S11300400C94A2000C9477000C9477000C94770025
S11300500C9477000C9477000C9477000C94770040
S11300600C9477000C9477000C9477000C94770030
S11300700C9477000C9477000C9477000C94770020
S11300800C9477000C9477000C9477000C94770010
S11300900C9477000C9477000C9477000C94770000
S11300A00C9477000C9477000C9477000C947700F0
S11300B00C94770011241FBECFEFD8E0DEBFCDBF74
S11300C011E0A0E0B1E0EEE1F6E002C005900D928F
S11300D0A230B107D9F721E0A2E0B1E001C01D923E
S11300E0A330B207E1F70E9485000C940D030C9431
S11300F000001092C50087E68093C40088E18093D5
S1130100C10086E08093C20008950E94790084E8CB
S113011080937A0084E480937C0014BC85B5846069
S113012085BD80E186BDEEE6F0E08081816080835C
S11301307894FFCFE0ECF0E0908195FFFDCF8093C1
S1130140C60008951F920F920FB60F9211248F923A
S11301509F92AF92BF92CF92DF92EF92FF921F9342
S11301602F933F934F935F936F937F938F939F93BB
S1130170AF93BF93CF93DF93EF93FF9380910201EB
S11301808F5F809302019091000189135DC0EAE7BB
S1130190F0E0808180648083808184FD53C0CAE75D
S11301A0D0E00F2EF8E7AF2EB12CF02D0F2EF9E78B
S11301B0CF2ED12CF02D0F2EF4E6EF2EF12CF02DB6
S11301C00F2EFAE08F2E912CF02D88818061888388
S11301D0F5016081F601808170E0782B072E000C18
S11301E0880B990B0E94EC0120E030E040E85AE3D0
S11301F00E94780220E030E44CE955E40E94780241
S113020020E030E040E251E40E9442010E94B40147
S1130210605F7F4FCB01880F991FB7010E94E502F1
S1130220B4010E94E502182F80E3860F0E949A0011
S113023080E3810F0E949A008AE00E949A008881DC
S113024084FFC3CF1092020180E186BDFF91EF913C
S1130250DF91CF91BF91AF919F918F917F916F91DA
S11302605F914F913F912F911F91FF90EF90DF90FD
S1130270CF90BF90AF909F908F900F900FBE0F9034
S11302801F9018950E9456010C943E020E9437025A
S113029058F00E94300240F029F45F3F29F00C949A
S11302A0270251110C9472020C942D020E944F02E9
S11302B068F39923B1F3552391F3951B550BBB2791
S11302C0AA2762177307840738F09F5F5F4F220FD6
S11302D0331F441FAA1FA9F335D00E2E3AF0E0E8CD
S11302E032D091505040E695001CCAF72BD0FE2F17
S11302F029D0660F771F881FBB1F261737074807AB
S1130300AB07B0E809F0BB0B802DBF01FF27935862
S11303105F4F3AF09E3F510578F00C9427020C94FD
S113032072025F3FE4F3983ED4F386957795679520
S1130330B795F7959F5FC9F7880F911D9695879597
S113034097F90895E1E0660F771F881FBB1F6217B6
S113035073078407BA0720F0621B730B840BBA0B74
S1130360EE1F88F7E09508950E94BB016894B111CF
S11303700C94720208950E94570288F09F5798F0D7
S1130380B92F9927B751B0F0E1F0660F771F881F96
S1130390991F1AF0BA95C9F714C0B13091F00E94B0
S11303A07102B1E008950C947102672F782F8827A9
S11303B0B85F39F0B93FCCF3869577956795B395D7
S11303C0D9F73EF490958095709561957F4F8F4F46
S11303D09F4F0895E89409C097FB3EF4909580954B
S11303E0709561957F4F8F4F9F4F9923A9F0F92FF7
S11303F096E9BB279395F695879577956795B79575
S1130400F111F8CFFAF4BB0F11F460FF1BC06F5F5A
S11304107F4F8F4F9F4F16C0882311F096E911C06C
S1130420772321F09EE8872F762F05C0662371F08D
S113043096E8862F70E060E02AF09A95660F771FA1
S1130440881FDAF7880F9695879597F9089597F995
S11304509F6780E870E060E008959FEF80EC089566
S113046000240A941616170618060906089500248F
S11304700A9412161306140605060895092E039409
S1130480000C11F4882352F0BB0F40F4BF2B11F47D
S113049060FF04C06F5F7F4F8F4F9F4F089557FDDC
S11304A09058440F551F59F05F3F71F04795880FDE
S11304B097FB991F61F09F3F79F087950895121675
S11304C013061406551FF2CF4695F1DF08C0161621
S11304D017061806991FF1CF8695710561050894D2
S11304E00895E894BB2766277727CB0197F90895E9
S11304F00E948B020C943E020E94300238F00E944B
S1130500370220F0952311F00C9427020C942D024D
S113051011240C9472020E944F0270F3959FC1F350
S1130520950F50E0551F629FF001729FBB27F00D9D
S1130530B11D639FAA27F00DB11DAA1F649F6627F2
S1130540B00DA11D661F829F2227B00DA11D621F41
S1130550739FB00DA11D621F839FA00D611D221FFB
S1130560749F3327A00D611D231F849F600D211DDF
S1130570822F762F6A2F11249F5750409AF0F1F062
S113058088234AF0EE0FFF1FBB1F661F771F881FCB
S113059091505040A9F79E3F510580F00C942702DA
S11305A00C9472025F3FE4F3983ED4F386957795FA
S11305B06795B795F795E7959F5FC1F7FE2B880F71
S11305C0911D9695879597F9089597FB072E16F434
S11305D0009407D077FD09D00E94F90207FC05D0EA
S11305E03EF4909581959F4F0895709561957F4F46
S11305F00895AA1BBB1B51E107C0AA1FBB1FA61766
S1130600B70710F0A61BB70B881F991F5A95A9F7B7
S111061080959095BC01CD010895F894FFCF1C
S105061EFA00DC
S9030000FC
