:100000000C949B000C94B8000C94B8000C94B800AD
:100010000C94B8000C94B8000C94B8000C94B80080
:100020000C94B8000C94B8000C94B8000C94B80070
:100030000C94B8000C94B8000C94B8000C94B80060
:100040000C94AE010C94B8000C94B8000C94B80059
:100050000C94B8000C94B8000C94B8000C94B80040
:100060000C94B8000C94B8000C94B8000C94B80030
:100070000C94B8000C94B8000C94B8000C94B80020
:100080000C94B8000C94B8000C94B8000C94B80010
:100090000C94B8000C94B8000C94B8000C94B80000
:1000A0000C94B8000C94B8000C94B8000C94B800F0
:1000B0000C94B80007634236B79BD8A71A39685624
:1000C00018AEBAAB558C1D3CB7CC5763BD6DEDFD7A
:1000D000753EF6177231BF000000803F0800000037
:1000E000BE922449123EABAAAA2ABECDCCCC4C3E2D
:1000F00000000080BEABAAAAAA3E00000000BF001C
:100100000000803F0000000000084178D3BB438717
:10011000D1133D190E3CC3BD4282AD2B3E68EC822B
:1001200076BED98FE1A93E4C80EFFFBE01C4FF7FB0
:100130003F000000000011241FBECFEFD8E0DEBF5B
:10014000CDBF11E0A0E0B1E0E2E8FDE002C0059023
:100150000D92A031B107D9F721E0A0E1B1E001C0D3
:100160001D92AA31B207E1F70E94C6000C94BF06A7
:100170000C9400001092C50087E68093C40088E1CB
:100180008093C10086E08093C20008950E94BA0067
:1001900014BC85B5846085BD80E186BDEEE6F0E0E7
:1001A0008081816080837894FFCFE0ECF0E09081E3
:1001B00095FFFDCF8093C6000895CF93DF93EC01A8
:1001C0008881882331F021960E94D5008991811180
:1001D000FBCFDF91CF9108959B0121503109121679
:1001E000130684F4FC01E60FF71FDC0180E090E0C9
:1001F0004C9152915D9340830196215031098217B1
:100200009307B4F30895CF92DF92EF92FF920F938A
:100210001F93CF93DF936B018A01009799F0EB0155
:10022000E0E0F0E00F2EFAE0EF2EF12CF02D319609
:10023000B7010E94A305805D8993862F972F0097B1
:10024000B1F702C0E0E0F0E0E017F1075CF4EC0D7C
:10025000FD1D9601200F311F80E38193E217F30704
:10026000E1F701C08F01B801C6010E94EC00E60170
:10027000C00FD11F1882C801DF91CF911F910F913C
:10028000FF90EF90DF90CF9008952F923F924F9282
:100290005F926F927F928F929F92AF92BF92CF9216
:1002A000DF92EF92FF920F931F93CF93DF934B0157
:1002B0005C018A01E9010E947B026B017C0140E044
:1002C00050E0B801C6010E9403011C01209799F17A
:1002D000F801E80FF91F8EE28083BE010D2E000C9D
:1002E000880B990B0E94B3029B01AC0160E070E0A7
:1002F00080E291E40E94AC032B013C01B601DD0CCD
:10030000880B990B0E94B3029B01AC01C501B4019B
:100310000E940E022FEF221A320A020D131DA301B2
:1003200092010E943F030E947B02DC01CB01AE01DF
:10033000B8010E940301DF91CF911F910F91FF90AF
:10034000EF90DF90CF90BF90AF909F908F907F9075
:100350006F905F904F903F902F9008951F920F9253
:100360000FB60F9211242F933F934F935F936F9388
:100370007F938F939F93AF93BF93EF93FF9380915E
:1003800010018F5F8093100190910401891333C095
:1003900087E091E00E94DD0085E091E00E94DD00B1
:1003A0000E9417064AE061E171E00E94270681E1A0
:1003B00091E00E94DD0085E091E00E94DD00609107
:1003C0000C0170910D0180910E0190910F0122E0BE
:1003D00030E046E151E00E94450186E191E00E9453
:1003E000DD0085E091E00E94DD0085E091E00E9463
:1003F000DD001092100180E186BDFF91EF91BF9169
:10040000AF919F918F917F916F915F914F913F91AC
:100410002F910F900FBE0F901F9018955058BB272B
:10042000AA270E9426020C9405030E94F70238F0C6
:100430000E94FE0220F039F49F3F19F426F40C9438
:10044000F4020EF4E095E7FB0C94EE02E92F0E9413
:10045000160358F3BA17620773078407950720F04D
:1004600079F4A6F50C9438030EF4E0950B2EBA2F10
:10047000A02D0B01B90190010C01CA01A0011124AA
:10048000FF27591B99F0593F50F4503E68F11A1656
:10049000F040A22F232F342F4427585FF3CF4695E7
:1004A00037952795A795F0405395C9F77EF41F1609
:1004B000BA0B620B730B840BBAF09150A1F0FF0FD3
:1004C000BB1F661F771F881FC2F70EC0BA0F621FBF
:1004D000731F841F48F4879577956795B795F795AF
:1004E0009E3F08F0B0CF9395880F08F09927EE0F44
:1004F0009795879508950E9482026894B1110C9493
:10050000390308950E941E0388F09F5798F0B92F71
:100510009927B751B0F0E1F0660F771F881F991F38
:100520001AF0BA95C9F714C0B13091F00E9438039F
:10053000B1E008950C943803672F782F8827B85FAF
:1005400039F0B93FCCF3869577956795B395D9F790
:100550003EF490958095709561957F4F8F4F9F4F9A
:100560000895E89409C097FB3EF4909580957095A6
:1005700061957F4F8F4F9F4F9923A9F0F92F96E9EF
:10058000BB279395F695879577956795B795F11164
:10059000F8CFFAF4BB0F11F460FF1BC06F5F7F4F01
:1005A0008F4F9F4F16C0882311F096E911C0772313
:1005B00021F09EE8872F762F05C0662371F096E81C
:1005C000862F70E060E02AF09A95660F771F881FEB
:1005D000DAF7880F9695879597F9089597F99F67A9
:1005E00080E870E060E008959FEF80EC08950024BB
:1005F0000A941616170618060906089500240A9488
:1006000012161306140605060895092E0394000C0D
:1006100011F4882352F0BB0F40F4BF2B11F460FF9C
:1006200004C06F5F7F4F8F4F9F4F089557FD9058C5
:10063000440F551F59F05F3F71F04795880F97FBA6
:10064000991F61F09F3F79F0879508951216130660
:100650001406551FF2CF4695F1DF08C0161617068F
:100660001806991FF1CF86957105610508940895C4
:10067000E894BB2766277727CB0197F908950E9456
:1006800052030C9405030E94F70238F00E94FE0208
:1006900020F0952311F00C94EE020C94F402112436
:1006A0000C9439030E94160370F3959FC1F3950FC4
:1006B00050E0551F629FF001729FBB27F00DB11DE6
:1006C000639FAA27F00DB11DAA1F649F6627B00D76
:1006D000A11D661F829F2227B00DA11D621F739F5F
:1006E000B00DA11D621F839FA00D611D221F749F6D
:1006F0003327A00D611D231F849F600D211D822FB4
:10070000762F6A2F11249F5750409AF0F1F08823DA
:100710004AF0EE0FFF1FBB1F661F771F881F915007
:100720005040A9F79E3F510580F00C94EE020C94C6
:1007300039035F3FE4F3983ED4F386957795679548
:10074000B795F795E7959F5FC1F7FE2B880F911D31
:100750009695879597F90895FA01EE0FFF1F309649
:1007600021053105A1F16115710561F48038BFE300
:100770009B0749F168949038810561F08038BFEF9C
:100780009B0741F099234AF5FF3FE105310521051B
:1007900019F1E8940894E795D901AA2329F4AB2F1D
:1007A000BE2FF85FD0F310C0FF5F70F4A695E0F79E
:1007B000F73950F019F0FF3A38F49F779F930DD036
:1007C0000F9007FC9058089546F00C94F40260E0F6
:1007D00070E080E89FE308954FE79F775F934F9322
:1007E0003F932F930E94A7042F913F914F915F91C8
:1007F0000E943F030C94040429F416F00C94EE02BA
:100800000C9438030C94F4020E941E03A8F396384B
:10081000A0F707F80F92E8942BE33AEA48EB5FE77A
:100820000E9455030F920F920F924DB75EB70F9231
:100830000E94EF04E4EBF0E00E9436044F915F91D8
:10084000EF91FF91E595EE1FFF1F49F0FE57E0681D
:100850004427EE0F441FFA95E1F74195550B0E948E
:1008600069040F9007FE0C945D040895DF93CF9305
:100870001F930F93FF92EF92DF927B018C0168949C
:1008800006C0DA2EEF010E945203FE01E894A59102
:100890002591359145915591A6F3EF010E942602CD
:1008A000FE019701A801DA9469F7DF90EF90FF90BD
:1008B0000F911F91CF91DF9108959B01AC0160E0F2
:1008C00070E080E89FE30C9423050C94EE020C94F6
:1008D00095050E941E03D8F39923C9F3940F511D67
:1008E000A3F39150504094F059F0882332F0660FF2
:1008F000771F881F91505040C1F79E3F51052CF73C
:10090000880F911D9695879597F908955F3FACF0F4
:10091000983E9CF0BB27869577956795B79508F428
:10092000B1609395C1F7BB0F58F711F460FFE8CFA2
:100930006F5F7F4F8F4F9F4FE3CF0C94390316F0BB
:100940000C9495050C94F40268940C94EE020E94A9
:100950001E03A8F39923C1F3AEF3DF93CF931F9344
:100960000F93FF92C92FDD2788232AF02197660F66
:10097000771F881FDAF720E030E040E85FEB9FE365
:10098000883920F0803E38F021968F770E940F0240
:10099000ECEDF0E004C00E940F02E9E0F1E00E94FB
:1009A00036048B01BE01EC01FB2E6F577109759562
:1009B000771F880B990B0E94B30228E132E741E3CD
:1009C0005FE30E945203AF2D9801AE01FF900F919B
:1009D0001F91CF91DF910E9426020C940503FA012A
:1009E000DC01AA0FBB1F9B01AC01BF5728F42227D3
:1009F00033274427507820C0B75190F4AB2F002400
:100A0000469537952795011CA395D2F3002071F0E8
:100A1000220F331F441FB395DAF30ED00C940E024D
:100A200061307105A0E88A07B94630F49B01AC013A
:100A30006627772788279078309621F020833183A6
:100A40004283538308950E9437050C9405030E9446
:100A5000FE0258F00E94F70240F029F45F3F29F0AF
:100A60000C94EE0251110C9439030C94F4020E9480
:100A7000160368F39923B1F3552391F3951B550B96
:100A8000BB27AA2762177307840738F09F5F5F4F61
:100A9000220F331F441FAA1FA9F335D00E2E3AF0A0
:100AA000E0E832D091505040E695001CCAF72BD0B8
:100AB000FE2F29D0660F771F881FBB1F2617370709
:100AC0004807AB07B0E809F0BB0B802DBF01FF273B
:100AD00093585F4F3AF09E3F510578F00C94EE0228
:100AE0000C9439035F3FE4F3983ED4F386957795F1
:100AF0006795B795F7959F5FC9F7880F911D9695F4
:100B0000879597F90895E1E0660F771F881FBB1F4F
:100B1000621773078407BA0720F0621B730B840BFC
:100B2000BA0BEE1F88F7E09508959F3F31F0915082
:100B300020F4879577956795B795880F911D9695C1
:100B4000879597F9089597FB072E16F4009407D020
:100B500077FD09D00E94B70507FC05D03EF49095BB
:100B600081959F4F0895709561957F4F0895AA1BB9
:100B7000BB1B51E107C0AA1FBB1FA617B70710F088
:100B8000A61BB70B881F991F5A95A9F780959095BA
:100B9000BC01CD0108958F929F92AF92BF92CF92E8
:100BA000DF92EF92FF92CF93DF93EC01688179811E
:100BB0008A819B81611571058105910521F464E2AB
:100BC00079ED8BE597E02DE133EF41E050E00E94B5
:100BD0005C0649015A019B01AC01A7EAB1E40E94FD
:100BE0007B066B017C01ACEEB4EFA50194010E9481
:100BF0008906DC01CB018C0D9D1DAE1DBF1DB7FF0D
:100C000003C00197A109B04888839983AA83BB8355
:100C10009F77DF91CF91FF90EF90DF90CF90BF90C3
:100C2000AF909F908F9008950E94CB05089580E02B
:100C300091E00E94CB050895A0E0B0E08093000110
:100C400090930101A0930201B09303010895BB2783
:100C50004A3031F4992322F4BDE2909581959F4F5B
:100C60000C943306BB27FB015527AA27880F991F31
:100C7000AA1FA41710F0A41B83955051B9F7A05DCB
:100C8000AA3308F0A95DA193009779F7B111B19348
:100C90001192CB010C944C06DC01FC01672F719181
:100CA0007723E1F7329704C07C916D937083629152
:100CB000AE17BF07C8F30895052E97FB1EF40094E6
:100CC0000E94730657FD07D00E948E0607FC03D0D2
:100CD0004EF40C94730650954095309521953F4FF6
:100CE0004F4F5F4F089590958095709561957F4F18
:100CF0008F4F9F4F08950E94B006A59F900DB49FFF
:100D0000900DA49F800D911D11240895B7FF0C94A0
:100D10007B060E947B06821B930B0895A1E21A2E8C
:100D2000AA1BBB1BFD010DC0AA1FBB1FEE1FFF1F8F
:100D3000A217B307E407F50720F0A21BB30BE40BDF
:100D4000F50B661F771F881F991F1A9469F7609526
:100D50007095809590959B01AC01BD01CF010895E0
:100D6000A29FB001B39FC001A39F700D811D1124EC
:100D7000911DB29F700D811D1124911D0895F8944D
:020D8000FFCFA3
:100D820001000000FA0A004441334100C3F5484023
:00000001FF
