:100000000C945A000C9477000C9477000C947700B1
:100010000C9477000C9477000C9477000C94770084
:100020000C9477000C9477000C9477000C94770074
:100030000C9477000C9477000C948D000C9477004E
:100040000C9477000C9477000C9477000C94770054
:100050000C9477000C9477000C9477000C94770044
:100060000C9477000C9477000C9477000C94770034
:100070000C9477000C9477000C9477000C94770024
:100080000C9477000C9477000C9477000C94770014
:100090000C9477000C9477000C9477000C94770004
:1000A0000C9477000C9477000C9477000C947700F4
:1000B0000C94770011241FBECFEFD8E0DEBFCDBF78
:1000C00011E0A0E0B1E0EEE8F1E002C005900D9291
:1000D000A230B107D9F721E0A2E0B1E001C01D9242
:1000E000A330B207E1F70E9479000C94C5000C948C
:1000F00000008FEF84B917B885B984EF87BD16BCAF
:1001000084B5826484BD85B5856085BDEEE6F0E08A
:100110008081826080837894FFCF1F920F920FB608
:100120000F9211248F939F93809102018F5F809390
:10013000020190910001891320C095B188E08927C0
:1001400085B92A9A80910001803159F488E1809321
:100150000001339910C085E5809300012B9A2A98FD
:100160000AC080E180930001339905C085E5809342
:1001700000012B9A2A981092020116BC9F918F9130
:0E0180000F900FBE0F901F901895F894FFCFB0
:02018E0010005F
:00000001FF
