S00E0000444132425F432E737265637B
S11300000C945A000C9486000C9464000C946400C4
S11300100C9464000C9464000C9464000C946400CC
S11300200C9464000C9464000C9464000C946400BC
S11300300C9464000C9464000C9464000C946400AC
S11300400C9464000C9464000C9464000C9464009C
S11300500C9464000C9464000C9464000C9464008C
S11300600C9464000C9464000C9464000C9464007C
S11300700C9464000C9464000C9464000C9464006C
S11300800C9464000C9464000C9464000C9464005C
S11300900C9464000C9464000C9464000C9464004C
S11300A00C9464000C9464000C9464000C9464003C
S11300B00C94640011241FBECFEFD8E0DEBFCDBF87
S11300C00E9466000C94A0000C94000088E084B99F
S11300D085B984E08BB981E08DBB82E080936900AF
S11300E078942FEF84E39CE0215080409040E1F726
S11300F000C000002B982FE78FE492E1215080404C
S11301009040E1F700C000002B9AEBCF1F920F92B2
S11301100FB60F9211242F938F939F932B982FE751
S113012086E191E4215080409040E1F700C0000056
S11301309F918F912F910F900FBE0F901F90189544
S1070140F894FFCF5D
S9030000FC
