:100000000C945A000C946C000C946C000C946C00D2
:100010000C9486000C946C000C946C000C946C0096
:100020000C946C000C946C000C946C000C946C00A0
:100030000C946C000C946C000C946C000C946C0090
:100040000C946C000C946C000C946C000C946C0080
:100050000C946C000C946C000C946C000C946C0070
:100060000C946C000C946C000C946C000C946C0060
:100070000C946C000C946C000C946C000C946C0050
:100080000C946C000C946C000C946C000C946C0040
:100090000C946C000C946C000C946C000C946C0030
:1000A0000C946C000C946C000C946C000C946C0020
:1000B0000C946C0011241FBECFEFD8E0DEBFCDBF83
:1000C00021E0A0E0B1E001C01D92A430B207E1F749
:1000D0000E946E000C94D5000C94000084B18660E0
:1000E00084B9569A38983998419A83E884BD85E056
:1000F00085BD82E08093680080936C00789480E4F2
:1001000080937C0087EE80937A00FFCF1F920F923E
:100110000FB60F9211242F938F939F93EF93FF931A
:10012000319939C08091000190910101892B59F4D6
:1001300017BC2A982FEF83ED90E321508040904028
:10014000E1F700C00000809100019091010101974A
:10015000C1F4EAE7F0E0808184FFFDCF8091780070
:1001600090917900909303018093020187BD2A9AB0
:100170002FEF83ED90E3215080409040E1F700C0E5
:100180000000809100019091010121E0822790936D
:10019000010180930001FF91EF919F918F912F9129
:0E01A0000F900FBE0F901F901895F894FFCF90
:00000001FF
