:100000000C945A000C9477000C9477000C947700B1
:100010000C9477000C9477000C9477000C94770084
:100020000C9477000C9477000C9477000C94770074
:100030000C9477000C9477000C9477000C94770064
:100040000C9477000C9477000C9477000C94770054
:100050000C9477000C9477000C9477000C94770044
:100060000C9477000C9477000C9477000C94770034
:100070000C9477000C9477000C9477000C94770024
:100080000C9477000C9477000C9477000C94770014
:100090000C9477000C9477000C9477000C94770004
:1000A0000C9477000C9477000C9477000C947700F4
:1000B0000C94770011241FBECFEFD8E0DEBFCDBF78
:1000C00011E0A0E0B1E0E6EFF6E002C005900D928D
:1000D000A03CB107D9F721E0A0ECB1E001C01D922E
:1000E000A43EB207E1F70E94C0020C9479030C947D
:1000F000000088E48093B8000895ECEBF0E01082F3
:1001000094EA908390819923ECF79091B900987FBD
:100110009830A1F48093BB0084E88093BC00ECEBA2
:10012000F0E080818823ECF79091B900987F9831B6
:1001300039F081E0903429F480E0089581E0089559
:1001400080E008958093BB0084E88093BC00ECEBD2
:10015000F0E080818823ECF79091B900987F81E0EE
:10016000983209F480E0089584EC8093BC00ECEBB5
:10017000F0E080818823ECF78091BB00089584E84B
:100180008093BC00ECEBF0E080818823ECF7809159
:10019000BB000895CF92DF92FF920F931F93CF93EE
:1001A000DF93C62F6A0189010E947D00F82E81111C
:1001B00015C08C2F0E94A2000115110559F0E6010F
:1001C0000C0D1D1D89910E94A20081110AC0C0174B
:1001D000D107C1F784E98093BC0005C0FF24F394E4
:1001E00002C0FF24F3948F2DDF91CF911F910F91C7
:1001F000FF90DF90CF900895AF92BF92DF92EF9281
:10020000FF920F931F93CF93DF93182F062F5A015E
:10021000E9010E947D00811122C0802F0E94A2006E
:10022000812F81600E947D00D82E81111BC08E011C
:100230000150110951F0E5017501E00EF11E0E9417
:10024000B4008993EC16FD06D1F7E501C00FD11F6C
:100250000E94BF00888384E98093BC0005C0DD2430
:10026000D39402C0DD24D3948D2DDF91CF911F91C3
:100270000F91FF90EF90DF90BF90AF900895CF93D4
:10028000DF931F92CDB7DEB721E030E0AE014F5FC4
:100290005F4F62E982E70E94FC0089818B3A09F096
:1002A000FFCF8BE1898321E030E0AE014F5F5F4FEC
:1002B00060E882E70E94CA008BED898321E030E08C
:1002C000AE014F5F5F4F61E882E70E94CA0086EF90
:1002D000898321E030E0AE014F5F5F4F63E882E742
:1002E0000E94CA0087E8898321E030E0AE014F5FB9
:1002F0005F4F6EE882E70E94CA00198221E030E079
:10030000AE014F5F5F4F6DE982E70E94CA0019821C
:1003100021E030E0AE014F5F5F4F6EE982E70E945F
:10032000CA0080E6898321E030E0AE014F5F5F4F75
:100330006DE882E70E94CA0081E1898321E030E014
:10034000AE014F5F5F4F6CE882E70E94CA0081E018
:10035000898321E030E0AE014F5F5F4F60E982E7C3
:100360000E94CA00198221E030E0AE014F5F5F4F6A
:100370006FE982E70E94CA000F90DF91CF91089544
:10038000CF92DF92EF92FF920F931F93CF93DF9361
:10039000CDB7DEB760970FB6F894DEBF0FBECDBF06
:1003A00021E030E0AE014F5F5F4F67E982E70E94D6
:1003B000FC0021E030E0AE014E5F5F4F66E982E76E
:1003C0000E94FC0021E030E0AE014D5F5F4F69E923
:1003D00082E70E94FC0021E030E0AE014C5F5F4FFD
:1003E00068E982E70E94FC0021E030E0AE014B5F4B
:1003F0005F4F6BE982E70E94FC0021E030E0AE0134
:100400004A5F5F4F6AE982E70E94FC00498150E041
:10041000542F44278A81482B5093D7014093D6010B
:100420002B8130E0322F22278C81282B3093D5016D
:100430002093D4018D8190E0982F88276E81862BA0
:100440009093D9018093D8014F3F510539F030F096
:100450004FEF50E05093D7014093D6012F3F310525
:1004600039F030F02FEF30E03093D5012093D401F4
:100470008F3F910539F030F08FEF90E09093D901E4
:100480008093D8018E01095F1F4F4AE0B801809127
:10049000D6019091D7010E94440378016E0181E159
:1004A000C80ED11CF801DF01AE19BF098191A65217
:1004B000BE4F8C93EC15FD05B1F74AE0BE01695FB4
:1004C0007F4F8091D4019091D5010E944403F701A0
:1004D000DF01AE19BF098191A054BE4F8C93EC157A
:1004E000FD05B1F74AE0BE01695F7F4F8091D801F9
:1004F0009091D9010E944403F701DF01AE19BF09B1
:100500008191A653BE4F8C93EC15FD05B1F7609613
:100510000FB6F894DEBF0FBECDBFDF91CF911F9114
:100520000F91FF90EF90DF90CF9008951092C5004B
:1005300080E18093C400E0ECF0E080818260808301
:10054000E1ECF0E0808188608083E2ECF0E0808183
:10055000866080830895CF93DF93DC018C9188239C
:1005600061F0E0ECF0E0C6ECD0E0908195FFFDCFCB
:100570008D9188838C918111F8CFDF91CF9108956F
:100580000E94790060E072EC81E090E00E949602A7
:100590000E943F018FE39CE90197F1F700C0000042
:1005A00089EA91E00E94AB028FE39CE90197F1F7A1
:1005B00000C0000080E091E00E94AB028FE39CE964
:1005C0000197F1F700C0000089EA91E00E94AB02B8
:1005D0008FE39CE90197F1F700C000008BE991E0FF
:1005E0000E94AB028FE39CE90197F1F700C0000085
:1005F0008AE791E00E94AB028FE39CE90197F1F753
:1006000000C0000082E391E00E94AB028FE39CE90E
:100610000197F1F700C0000081E591E00E94AB0274
:100620008FE39CE90197F1F700C0000080E491E0BE
:100630000E94AB028FE39CE90197F1F700C0000034
:100640000E94C00189E091E00E94AB028AED91E036
:100650000E94AB028EEA91E00E94AB0280EC91E036
:100660000E94AB0287EB91E00E94AB028AEC91E022
:100670000E94AB029FEF23ED80E391502040804029
:10068000E1F700C00000B8CFBB274A3031F499230E
:1006900022F4BDE2909581959F4F0C945003BB27A7
:1006A000FB015527AA27880F991FAA1FA41710F02E
:1006B000A41B83955051B9F7A05DAA3308F0A95D3A
:1006C000A193009779F7B111B1931192CB010C94DA
:1006D0006903DC01FC01672F71917723E1F7329701
:1006E00004C07C916D9370836291AE17BF07C8F30D
:0606F0000895F894FFCF0D
:1006F60041542B5253540D0A00474554202F757010
:10070600646174653F6B65793D49573235304E51AA
:1007160046544634484C314B5A266669656C6431FA
:100726003D0041542B4349504D55583D300D0A006C
:1007360041542B43495053454E443D3130340D0A04
:100746000041542B43495053544152543D22544383
:1007560050222C223138342E3130362E3135332E7C
:10076600313439222C38300D0A0041542B43574A74
:1007760041503D22626C6168626C6168222C226283
:100786006C6168626C6168220D0A0041542B435704
:100796004D4F44453D330D0A0041540D0A0026666F
:1007A60069656C64323D00266669656C64333D009C
:00000001FF
