:100000000C945A000C9464000C9464000C946400EA
:100010000C9464000C9464000C9464000C946400D0
:100020000C9464000C9464000C9464000C946400C0
:100030000C9464000C9464000C9464000C946400B0
:100040000C9464000C9464000C9464000C946400A0
:100050000C9464000C9464000C9464000C94640090
:100060000C9464000C9464000C9464000C94640080
:100070000C9464000C9464000C9464000C94640070
:100080000C9464000C9464000C9464000C94640060
:100090000C9464000C9464000C9464000C94640050
:1000A0000C9464000C9464000C9464000C94640040
:1000B0000C94640011241FBECFEFD8E0DEBFCDBF8B
:1000C0000E946D000C94CE000C94000080E480939C
:1000D0007C008FEE80937A00089580EF8AB90E94A9
:1000E00066008DE080938100EAE7F0E00F2EF8E7EC
:1000F000EF2EF12CF02D08E810E00F2EF0E9DF2EA6
:10010000F02DA4E8B0E06894CC24C7F870EC60E46B
:1001100050E640E230E320E1808184FFFDCFE7013B
:1001200088819981E80199838883B19BFECFDBB8F0
:1001300011961C921E92B19AB19BFECFCBB811962C
:100140001C921E92B19AB19BFECF7BB911961C9264
:100150001E92B19AB19BFECF6BB911961C921E9262
:10016000B19AB19BFECF5BB911961C921E92B19AC7
:10017000B19BFECF4BB911961C921E92B19AB19BC6
:10018000FECF3BB911961C921E92B19AB19BFECF45
:100190002BB911961C921E92B19ABECFF894FFCF44
:00000001FF
