:100000000C945A000C9477000C9477000C947700B1
:100010000C9477000C9477000C9477000C94770084
:100020000C9477000C9477000C9477000C94770074
:100030000C9477000C9477000C9477000C94770064
:100040000C94D5000C9477000C9477000C947700F6
:100050000C9477000C9477000C9477000C94770044
:100060000C9477000C9477000C9477000C94770034
:100070000C9477000C9477000C9477000C94770024
:100080000C9477000C9477000C9477000C94770014
:100090000C9477000C9477000C9477000C94770004
:1000A0000C9477000C9477000C9477000C947700F4
:1000B0000C94770011241FBECFEFD8E0DEBFCDBF78
:1000C00011E0A0E0B1E0E0EBF6E002C005900D9297
:1000D000AE3AB107D9F721E0AEEAB1E001C01D9216
:1000E000AF3AB207E1F70E94A6000C9456030C94B5
:1000F000000082E08093C0001092C50080E18093F0
:10010000C40088E18093C10086E08093C200089516
:10011000E0ECF0E0908195FFFDCF8093C60008955C
:10012000CF93DF93EC018881882331F021960E94E0
:10013000880089918111FBCFDF91CF91089584E4EC
:1001400080937C0085E880937A0008950E9479006E
:100150000E949F0081E091E00E9490008FE39CE963
:100160000197F1F700C000008FE091E00E9490003D
:100170008FE39CE90197F1F700C0000089E391E06B
:100180000E9490008FE39CE90197F1F700C0000006
:1001900014BC85B5846085BD80E186BDEEE6F0E0E7
:1001A0008081816080837894FFCF1F920F920FB679
:1001B0000F9211242F933F934F935F936F937F93ED
:1001C0008F939F93AF93BF93CF93DF93EF93FF935F
:1001D0008091AE018F5F8093AE01909100018913F1
:1001E00085C0EAE7F0E0808180648083808184FFBD
:1001F000FDCFEAE7F0E08081806180836091780044
:100200008091790070E0782B072E000C880B990BF9
:100210000E94350220E030E040E85AE30E94C1022B
:1002200020E030E44CE955E40E94C10220E030E0D7
:1002300040E251E40E948B010E94FD01605F7F4F0C
:10024000CB01880F991F64E670E00E942E03EC0139
:1002500087E491E00E9490008FE39CE90197F1F719
:1002600000C0000083E791E00E9490008FE39CE9CA
:100270000197F1F700C0000083E891E00E94900030
:100280008FE39CE90197F1F700C00000CE016AE01E
:1002900070E00E942E03C82F80E3860F0E94880022
:1002A0008FE39CE90197F1F700C0000080E38C0F19
:1002B0000E9488008FE39CE90197F1F700C00000DD
:1002C0008CEA91E00E9490008FE39CE90197F1F79E
:1002D00000C0000086E391E00E9490008FE39CE95B
:1002E0000197F1F700C000001092AE0180E186BDD9
:1002F000FF91EF91DF91CF91BF91AF919F918F913E
:100300007F916F915F914F913F912F910F900FBE11
:100310000F901F9018950E949F010C9487020E94D5
:10032000800258F00E94790240F029F45F3F29F0E2
:100330000C94700251110C94BB020C9476020E9432
:10034000980268F39923B1F3552391F3951B550B4C
:10035000BB27AA2762177307840738F09F5F5F4F98
:10036000220F331F441FAA1FA9F335D00E2E3AF0D7
:10037000E0E832D091505040E695001CCAF72BD0EF
:10038000FE2F29D0660F771F881FBB1F2617370740
:100390004807AB07B0E809F0BB0B802DBF01FF2772
:1003A00093585F4F3AF09E3F510578F00C947002DD
:1003B0000C94BB025F3FE4F3983ED4F386957795A7
:1003C0006795B795F7959F5FC9F7880F911D96952B
:1003D000879597F90895E1E0660F771F881FBB1F87
:1003E000621773078407BA0720F0621B730B840B34
:1003F000BA0BEE1F88F7E09508950E9404026894F6
:10040000B1110C94BB0208950E94A00288F09F577E
:1004100098F0B92F9927B751B0F0E1F0660F771F28
:10042000881F991F1AF0BA95C9F714C0B13091F01E
:100430000E94BA02B1E008950C94BA02672F782F97
:100440008827B85F39F0B93FCCF3869577956795E3
:10045000B395D9F73EF490958095709561957F4F4F
:100460008F4F9F4F0895E89409C097FB3EF49095F5
:100470008095709561957F4F8F4F9F4F9923A9F07D
:10048000F92F96E9BB279395F6958795779567950C
:10049000B795F111F8CFFAF4BB0F11F460FF1BC050
:1004A0006F5F7F4F8F4F9F4F16C0882311F096E9E3
:1004B00011C0772321F09EE8872F762F05C0662391
:1004C00071F096E8862F70E060E02AF09A95660F4A
:1004D000771F881FDAF7880F9695879597F9089503
:1004E00097F99F6780E870E060E008959FEF80ECE7
:1004F000089500240A94161617061806090608958A
:1005000000240A9412161306140605060895092EEF
:100510000394000C11F4882352F0BB0F40F4BF2B5E
:1005200011F460FF04C06F5F7F4F8F4F9F4F08959E
:1005300057FD9058440F551F59F05F3F71F0479594
:10054000880F97FB991F61F09F3F79F08795089579
:10055000121613061406551FF2CF4695F1DF08C098
:10056000161617061806991FF1CF869571056105B5
:1005700008940895E894BB2766277727CB0197F95D
:1005800008950E94D4020C9487020E94790238F0E8
:100590000E94800220F0952311F00C9470020C94BC
:1005A000760211240C94BB020E94980270F3959F6E
:1005B000C1F3950F50E0551F629FF001729FBB275A
:1005C000F00DB11D639FAA27F00DB11DAA1F649FF6
:1005D0006627B00DA11D661F829F2227B00DA11DA9
:1005E000621F739FB00DA11D621F839FA00D611D2F
:1005F000221F749F3327A00D611D231F849F600D50
:10060000211D822F762F6A2F11249F5750409AF078
:10061000F1F088234AF0EE0FFF1FBB1F661F771F04
:10062000881F91505040A9F79E3F510580F00C94CF
:1006300070020C94BB025F3FE4F3983ED4F38695BE
:1006400077956795B795F795E7959F5FC1F7FE2B6F
:10065000880F911D9695879597F9089597FB072E1A
:1006600016F4009407D077FD09D00E94420307FCDE
:1006700005D03EF4909581959F4F089570956195B2
:100680007F4F0895AA1BBB1B51E107C0AA1FBB1FC8
:10069000A617B70710F0A61BB70B881F991F5A950E
:1006A000A9F780959095BC01CD010895F894FFCFEE
:1006B000FA41542B43574D4F44453D310D0A0041FB
:1006C000542B43574A41503D22534247363730302E
:1006D00041432D3841443530222C2239386161376D
:1006E0006137363965220D0A0041542B4349504D7C
:1006F00055583D300D0A0041542B43495053544145
:1007000052543D22544350222C226170692E746849
:10071000696E67737065616B2E636F6D222C383064
:100720000D0A0041542B43495053454E443D353149
:100730000D0A00474554202F7570646174653F6B46
:1007400065793D594C564957554A384D49484B50A3
:0E0750004B4352266669656C64313D00200003
:00000001FF
