S0120000444132435F5461736B312E73726563F5
S11300000C945A000C9464000C9464000C946400E6
S11300100C9464000C9464000C9464000C946400CC
S11300200C9464000C9464000C9464000C946400BC
S11300300C9464000C9464000C9464000C946400AC
S11300400C9464000C9464000C9464000C9464009C
S11300500C9464000C9464000C9464000C9464008C
S11300600C9464000C9464000C9464000C9464007C
S11300700C9464000C9464000C9464000C9464006C
S11300800C9464000C9464000C9464000C9464005C
S11300900C9464000C9464000C9464000C9464004C
S11300A00C9464000C9464000C9464000C9464003C
S11300B00C94640011241FBECFEFD8E0DEBFCDBF87
S11300C00E9466000C94BB000C9400008FEF84B96E
S11300D017B885B914BC16BC85B5856085BD98E094
S11300E016BC20E030E086B58F3F21F42F5F3F4FF0
S11300F016BC15C0339913C02B9A2A9816BC22E556
S113010030E007C086B58F3FE9F716BC21503109AE
S113011021F086B58F3FB1F7F8CF2A9A03C0273173
S113012031050CF385B1892785B916BC20E030E090
S113013086B58F3F21F42F5F3F4F16BC15C033990E
S113014013C02B9A2A9816BC22E530E007C086B566
S11301508F3FE9F716BC2150310921F086B58F3F56
S1130160B1F7F8CF2A9A03C02F3031050CF385B1CB
S10D0170892785B9B5CFF894FFCFB5
S9030000FC
